:020000041000EA
:1000000000B5324B212058609868022188439860DF
:10001000D860186158612E4B002199600221596106
:100020000121F02299502B49196001219960352056
:1000300000F044F80222904214D00621196600F024
:1000400034F8196E01211966002018661A6600F04E
:100050002CF8196E196E196E052000F02FF8012189
:100060000842F9D1002199601B49196000215960AB
:100070001A491B48016001219960EB211966A021F2
:10008000196600F012F800219960164914480160C1
:100090000121996001BC002800D000471248134993
:1000A000086003C880F30888084703B5996A0420EC
:1000B0000142FBD001200142F8D103BD02B5186610
:1000C0001866FFF7F2FF186E186E02BD00000240BE
:1000D000000000180000070000035F00212200005C
:1000E000F4000018222000A00001001008ED00E03C
:1000F00000000000000000000000000074B24E7A12
:1001000000200420F7010010C3010010C5010010F9
:10011000C1010010C1010010C1010010C101001097
:10012000C1010010C1010010C1010010C701001081
:10013000C1010010C1010010C9010010CB01001065
:10014000CD010010CD010010CD010010CD01001037
:10015000CD010010CD010010CD010010CD01001027
:10016000CD010010CD010010CD010010CD01001017
:10017000CD010010CD010010CD010010CD01001007
:10018000CD010010CD010010CD010010CD010010F7
:10019000CD010010CD010010CD010010CD010010E7
:1001A000CD010010CD010010CD010010CD010010D7
:1001B000CD010010CD010010CD010010CD010010C7
:1001C00000BE00BE00BE00BE00BE00BEEFF3058054
:1001D000103800BEF2EB88716429011094290110D7
:1001E0003802001090A31AE71E481F49086006C88D
:1001F00081F3088810471D480068002801D019487D
:10020000F3E70DA40ECC002902D000F012F8F9E7B4
:100210001749184A002000E001C19142FCD116495B
:100220008847164988471649884700BEFDE701C937
:1002300001C29A42FBD3704794290110C0000020EC
:10024000A81E00207C4701100000042000000420AC
:100250007C47011000100420001004200000000062
:10026000704700000000000008ED00E0000000D032
:10027000A81E0020903800209D6A00102D05001057
:10028000956A0010F8B5C0460448054B10B5834286
:1002900003D0044B002B00D0984710BDA81E0020AF
:1002A000A81E00200000000006480749091A8B100C
:1002B000C90FC91810B5491003D0044B002B00D04A
:1002C000984710BDA81E0020A81E002000000000B6
:1002D00010B5074C2378002B09D1FFF7D5FF054B4C
:1002E000002B02D0044800E000BF0123237010BDA2
:1002F000F026002000000000D8010110054B10B5C9
:10030000002B03D00449054800E000BFFFF7CCFFF5
:1003100010BDC04600000000F4260020D8010110E6
:1003200010B50400642006F043FD206010BDC046F7
:1003300070B504000D0000F075FB0600042C00D021
:1003400070BD2B07FCD5154806F0E2FD3205920F73
:10035000012A08D0022A16D0002A0ED00321104804
:1003600006F060FEECE731120A40FF2133041B0F58
:1003700031400C4806F056FEE2E7FF210A483140C2
:1003800006F050FEDCE7FF213304F2051B0FD20F0D
:100390003140064806F046FED2E7C046D8010110BB
:1003A0003402011004020110F80101101C020110B6
:1003B000F0B5C64600254B4B00B51D6006F0F2FCBB
:1003C000322003F053FDE1214748C90203F03CFE0F
:1003D000FA20400003F04AFD0221002002F0EAFD6D
:1003E0000221012002F0E6FD322003F03FFD3F49EB
:1003F0000D60EFF3108472B63D4806F025FD84F3DE
:1004000010883C4806F084FD00F08CFD00F0CCFE26
:10041000394806F07DFD00F05DFC0A2003F026FD62
:1004200000F05EFC00F0DCFD344806F071FDB02306
:10043000B427334C5B00E5500433E5507F000833AC
:10044000E550B826E551984600F04CFBBA237600FB
:100450008022A05120005B00E5505204043329495A
:10046000E250E73004330922E55004F0BDFFA62333
:10047000254A5B00E250CB220433E2500433C33AF6
:10048000E2500433063AE250204A04332048E25056
:1004900006F03EFD200000F0C3FD1E4806F038FDCA
:1004A000002203211C4806F0BDFD4346E159E258F5
:1004B0001A4806F0B7FDA159194806F0B3FD00F03F
:1004C00083F900280AD0174806F022FD200000F02A
:1004D000C5FB00F07DFA80BCB846F0BD124806F0BE
:1004E00017FDF3E7A4320020004003406C320020E7
:1004F000210300105C02011090020110A4020110FF
:10050000C43600205002011080FC0A00881300004D
:10051000B8020110E00201100003011024030110D1
:100520003C030110540301106C030110F0B5DE46CA
:1005300057464E464546E0B585B0FFF739FF3D4882
:1005400006F0E6FC00F0C4FE3B4BBA2798463B4B56
:1005500000259B46B0235B00994604339A46384CED
:10056000384E7F0023E0042219009143192930D02E
:10057000092B58D0102B56D0200000F081FF336893
:10058000002B10D0202293434C2B42D0532B08D168
:100590002D4806F0BDFC5B4600220821042002F035
:1005A0004FFD00233360642003F060FC01353221ED
:1005B000280004F071F8002919D0200000F04EFB4B
:1005C000200000F0C3FB200000F0D4FFE359002B13
:1005D000C9D14B46E0585346E15C6623FF33E35CE8
:1005E0002200002B00D1194A00F0B6FEC4E700F04B
:1005F000F5F900210390812000F02CF84A46039B76
:100600000090019329004046E359A25806F00AFDE4
:10061000D3E70F4806F07CFC5B460122082104204A
:1006200002F00EFDBDE75346E15C4B462200E05868
:10063000DAE7C04688030110B4030110310300104B
:10064000C43600206C32002014040110E0070110B1
:10065000FC03011070B582B06B4618705970C0462B
:10066000C046C046D02580262D06B602AE61C046E3
:10067000C046C04601AC02232200694606480FF07E
:100680006BFDC046C046C0466E61C046C046C0460F
:10069000607802B070BDC04600C0034070B582B043
:1006A000A0236A461380C046C046C046D025802697
:1006B0002D06B602AE61C046C046C04601AC22005F
:1006C00069469E3B07480FF047FDC046C046C046FE
:1006D0006E61C046C046C04660780007C00F02B0D9
:1006E00070BDC04600C0034070B582B0A0236A460A
:1006F0001380C046C046C046D02580262D06B602CF
:10070000AE61C046C046C04601AC220069469E3B71
:1007100007480FF021FDC046C046C0466E61C04686
:10072000C046C04660788006C00F02B070BDC046AB
:1007300000C0034070B582B0A0236A461380C04653
:10074000C046C046D02580262D06B602AE61C04602
:10075000C046C04601AC220069469E3B07480FF0E8
:10076000FBFCC046C046C0466E61C046C046C0469F
:1007700060784006C00F02B070BDC04600C00340A4
:1007800070B582B0A0236A461380C046C046C046FA
:10079000D02580262D06B602AE61C046C046C046B2
:1007A00001AC220069469E3B06480FF0D5FCC046CE
:1007B000C046C0466E61C046C046C0466078C009AB
:1007C00002B070BD00C0034070B582B0A0236A467D
:1007D0001380C046C046C046D02580262D06B602EE
:1007E000AE61C046C046C04601AC220069469E3B91
:1007F00007480FF0B1FCC046C046C0466E61C04617
:10080000C046C04601206378184002B070BDC046A3
:1008100000C0034030B5822383B06A465B0013807A
:10082000C046C046C046D02480252406AD02A5613E
:10083000C046C046C046033B6946FF3B01AA064886
:100840000FF08AFCC046C046C0466561C046C0463F
:10085000C04603B030BDC04600C00340F0B583B011
:10086000A0236A461380C046C046C046D0248025D7
:100870002406AD02A561C046C046C046154F01AE74
:100880003200694638009E3B0FF066FCC046C04609
:10089000C0466561C046C046C046002269467378BE
:1008A0000A70102213434B70C046C046C046A56173
:1008B000C046C046C0460223320038000FF04CFC50
:1008C000C046C046C0466561C046C046C04603B08B
:1008D000F0BDC04600C00340F0B583B0A0236A4617
:1008E0001380C046C046C046D02480252406AD02F1
:1008F000A561C046C046C046154F01AE32006946EC
:1009000038009E3B0FF028FCC046C046C0466561DB
:10091000C046C046C0460022694673780A7010324D
:1009200093434B70C046C046C046A561C046C04612
:10093000C0460223320038000FF00EFCC046C0460D
:10094000C0466561C046C046C04603B0F0BDC04663
:1009500000C00340F0B583B0A0236A461380C046B0
:10096000C046C046D02480252406AD02A561C046FD
:10097000C046C046154F01AE3200694638009E3B66
:100980000FF0EAFBC046C046C0466561C046C0469F
:10099000C0460022694673780A70203293434B7038
:1009A000C046C046C046A561C046C046C0460223F8
:1009B000320038000FF0D0FBC046C046C04665612B
:1009C000C046C046C04603B0F0BDC04600C00340AC
:1009D000D02304221B065A617047C04670B582B00E
:1009E000A0236A461380C046C046C046D025802654
:1009F0002D06B602AE61C046C046C04601AC22001C
:100A000069469E3B06480FF0A7FBC046C046C0465D
:100A10006E61C046C046C046607802B070BDC04638
:100A200000C00340F0B5C64600B582B081236A46D7
:100A30001380C046C046C046D02580262D06B6028B
:100A4000AE61C046C046C046254C694620007F3B8B
:100A500001AA0FF081FBC046C046C0466E61C04689
:100A6000C046C0466B466A465F7982231380C04603
:100A7000C046C046AE61C046C046C046694620007A
:100A8000803B01AA0FF068FBC046C046C0466E61BD
:100A9000C046C046C0466B465B796A46984683238B
:100AA0001380C046C046C046AE61C046C046C04680
:100AB00069462000813B01AA0FF04EFBC046C046AC
:100AC000C0466E61C046C046C0466B4642465B7932
:100AD00010021B041843384302B080BCB846F0BD76
:100AE00000C0034070B5D02580262D066C68F60343
:100AF000344063425C411620013402F01DFB6E62FB
:100B0000200070BDD0231B0658684006C00F7047F8
:100B10000523F0B5C646984600B582B06B464246FE
:100B20001A706A46031406005370C046C046C04699
:100B3000D02480252406AD02A561C046C046C0462B
:100B4000214F02236946380001AA0FF005FBC04679
:100B5000C046C0466561C046C046C0466B46424678
:100B60001A706A4633125370C046C046C046A5612B
:100B7000C046C046C04602236946380001AA0FF0AD
:100B8000EBFAC046C046C0466561C046C046C04696
:100B90006B4642465E701A70C046C046C046A561AC
:100BA000C046C046C04602236946380001AA0FF07D
:100BB000D3FAC046C046C0466561C046C046C0467E
:100BC00002B080BCB846F0BD00C0034030B583B071
:100BD0006A46062350701370C046C046C046D024F3
:100BE00080252406AD02A561C046C046C04602234A
:100BF000694601AA05480FF0AFFAC046C046C04694
:100C00006561C046C046C04603B030BD00C0034069
:100C100070B582B088236A461380C046C046C0467D
:100C2000D02580262D06B602AE61C046C046C0461D
:100C300001AC22006946863B06480FF08DFAC0469B
:100C4000C046C0466E61C046C046C046607802B02D
:100C500070BDC04600C003407047C04670B5D02488
:100C60000123240662688025120D9343BC225200A2
:100C700083547A230232815CFF33C1546368AD032D
:100C80002B405D425D4182B08554002B01D100298B
:100C900001D002B070BD6A460533FF331380C046F1
:100CA000C046C0468025AD02A561C046C046C046CC
:100CB000033B6946FF3B01AA05480FF04DFAC046C9
:100CC000C046C0466561C046C046C046E1E7C04672
:100CD00000C00340D02308221B069A617047C0461B
:100CE000D02308221B065A617047C046D0238022B9
:100CF0001B069A617047C046D02380221B065A61AA
:100D00007047C046D02380221B0692009A6170472C
:100D1000D02380221B0692005A617047D023802284
:100D20001B06D2009A617047D02380221B06D20096
:100D30005A617047D02380221B0652009A61704787
:100D4000D02380221B0652005A61704770B50500FF
:100D50000EF032F91F211C2002F02CF90022002194
:100D60001C2002F041F900211C2002F0D1F980235F
:100D7000254C9B0122680A205340E022D2011340F7
:100D8000224A136003F072F80422214B1A60FC32ED
:100D900023681342FCD0C021636849009AB21B0447
:100DA0001B0C6B506823FF33EC5C002C0BD1200034
:100DB000184991426041E8548A420BD9D023042259
:100DC0001B065A6170BD0021134890424941E95405
:100DD000824210D8D02304221B069A610F49104882
:100DE00000F002FA6823FF33EB5CA342EAD00D481F
:100DF00006F08EF8E6E7D02304221B065A610A4863
:100E000006F086F8DEE7C04600C0044000D004408B
:100E100000E00440210B00007C0B00002C040110BA
:100E200038040110400401105C040110D02301209B
:100E30001B065B68DB0A98437047C0460022034BE1
:100E40001A60034B01321A607047C04650300020D0
:100E5000543100201422034B1A600022024B1A6006
:100E60007047C0465030002054310020F0B5294B67
:100E700083B01C68012C27D0274C284A2368694678
:100E8000013B2360D35C12224B700A70C046C046FF
:100E9000C046D02580262D06B602AE61C046C046AB
:100EA000C046022301AA1E480FF056F9C046C046AC
:100EB000C0466E61C046C046C0462368002B27DC92
:100EC0000024200003B0F0BD134D144A2B6869467E
:100ED00001332B60D35C12224B700A70C046C046AF
:100EE000C046D02680273606BF02B761C046C0463E
:100EF000C046022301AA0A480FF02EF9C046C04698
:100F0000C0467761C046C046C0462B68132BD8DC6C
:100F10000224D6E754310020503000207C04011018
:100F200000C00340F8B5192002F006F9D024802350
:100F300024069B0463620320A36102F0FDF80823EA
:100F400002206362636102F0F7F8042380278026A1
:100F5000802563620720636102F0EEF87600676225
:100F60000820676102F0E8F8AD006662092066615A
:100F700002F0E2F865620A20656102F0DDF8802384
:100F8000DB0063620B20A36102F0D6F880231B0113
:100F9000A362142002F0D0F880235B03A362152023
:100FA00002F0CAF880239B03A362162002F0C4F863
:100FB0008023DB03A36200220121162002F014F833
:100FC000062002F0B9F84023002201210620A36286
:100FD00002F00AF800F096FA67616661A561F8BD53
:100FE00010B50D490D480DF0C3FD0121122001F08F
:100FF000E1FF0121132001F0DDFF0121102001F0AC
:10100000D9FF112002F098F8D02380221B0692020B
:101010005A625A6110BDC04640787D0100C003404D
:10102000A023F0B5CE464746994680B583B06B46BF
:101030004A4606001A80C046C046C046D0248025D5
:101040002406AD02A561C046C046C046554F0223E6
:101050006946380001AA0FF07FF8C046C046C04676
:101060006561C046C046C046002290466B466A464F
:1010700041465B791170102293436A465370C04613
:10108000C046C046A561C046C046C0460223694668
:10109000380001AA0FF060F8C046C046C04665613E
:1010A000C046C046C04666234246FF33F2546B46F4
:1010B0004A461A80C046C046C046A561C046C046E2
:1010C000C04602236946380001AA0FF045F8C04621
:1010D000C046C0466561C046C046C0466A466B46CB
:1010E00041465B791170202293436A465370C04693
:1010F000C046C046A561C046C046C04602236946F8
:10110000380001AA0FF028F8C046C046C046656105
:10111000C046C046C046B32342465B00F254633B20
:10112000FF3B63616823FF33F2546A46D73B138069
:10113000C046C046C046A561C046C046C0466946D6
:1011400038008E3B01AA0FF007F8C046C046C046E3
:101150006561C046C046C0466B465A79B4235B0001
:10116000F2506A46D73B1380C046C046C046A561D0
:10117000C046C046C046694638008F3B01AA0EF003
:10118000EBFFC046C046C0466561C046C046C0468B
:101190006B465A79B6235B00F25003B0C0BCB94627
:1011A000B046F0BD00C00340002310B50A4C4022F9
:1011B00023720A4B80216360094B20002361094B95
:1011C000E3603C2301F072FB200001F013FCFA20E5
:1011D00002F04CFE10BDC046A8320020441600208C
:1011E00001040000BC320020F0B5184C83B00500AB
:1011F00020000E0001F0FEFB2000002101F0D2FBD8
:101200000023134F20003B72124B02220093002157
:10121000022301F00BFC200002231622002100957E
:1012200001F004FC02232A2200212000009601F094
:10123000FDFB200001F0FCFC32002900064805F00F
:10124000F1FE64233B6003B0F0BDC046A83200202D
:1012500048380020A8040110B0040110F0B5184C63
:1012600083B0050020000E0001F0C4FB2000002127
:1012700001F098FB0023134F20003B72124B022217
:1012800000930521022301F0D1FB20000223162246
:101290000521009501F0CAFB02232A220521200026
:1012A000009601F0C3FB200001F0C2FC32002900CF
:1012B000064805F0B7FE1E233B6003B0F0BDC046F4
:1012C000A832002048380020D0040110D8040110B2
:1012D00030B51B4C83B0200001F08CFB20000021B6
:1012E00001F060FB0023174D20002B72164B0522E6
:1012F00000930C21022301F099FB144B2000009372
:10130000142202231E2101F091FB114B20000093B7
:10131000232202230A2101F089FB0E4B32220F21E6
:1013200020000093022301F081FB200001F080FCEB
:10133000FA20800002F09AFD1E232B6003B030BD1E
:10134000A832002048380020F804011000050110E0
:101350000805011014050110F0B5D6464F46464663
:10136000444BC0B55B6882B09946434B9246180027
:101370009846022701F03EFB4E461F2511E063060A
:101380001BD4A30620D4E30625D423072AD463075D
:101390002FD4A30734D4E30739D4083501366F2D91
:1013A0003ED00023F3563478002BE8DA3A0040466A
:1013B000E91F01F027FB6306E3D53A004046A91F69
:1013C00001F020FBA306DED53A004046691F01F07C
:1013D00019FBE306D9D53A004046291F01F012FB5C
:1013E0002307D4D53A004046E91E01F00BFB630702
:1013F000CFD53A004046A91E01F004FBA307CAD589
:101400003A004046691E01F0FDFAE307C5D5290000
:101410003A004046083501F0F5FA01366F2DC0D18B
:101420000A239C460137E1442A2FA5D10023DF225D
:10143000009312495200404601F02CFB50460EF03A
:1014400009FD0400022001F05FFC2100402341431C
:101450004908591A5346342240460093022301F0AA
:10146000E5FA404601F0E4FB02B0E0BCBA46B14602
:10147000A846F0BDF0050020A83200204C2800202E
:1014800070B51D4C02002368002B16DD9621013B30
:10149000890061602360002B0ED16133FF33C05897
:1014A0000433D15C6623FF33D35C002B16D0FFF7E7
:1014B00053FF96239B00636070BD63685D1E65608B
:1014C000002DF9D1237A002B0FD000210B4801F019
:1014D00069FA257296239B006360EDE7084AFFF7DF
:1014E0003BFF96239B006360E6E70121034801F080
:1014F00059FA01232372EDE748380020A832002072
:10150000E007011030B5184C85B0200017490DF0E8
:101510001FFD03211A2001F04DFD03211B2001F0C6
:1015200049FD002201211A2001F05EFD0022012167
:101530001B2001F059FD322002F098FC00256A467C
:101540000B4B1C219381200003AA022300950DF070
:1015500029FD02236A461C2193812000009503AADD
:101560000DF020FD05B030BD4416002040420F00B4
:10157000030F0000BA2370B55B00C158040082B0AD
:10158000202903D8D74A8B00D3589F46D64805F068
:1015900049FD02B070BDD54805F0BAFCD449D54824
:1015A000FFF75CFEFFF756FCD34805F0B1FCBA2309
:1015B00015225B00E250ECE7FFF758FC0128E8D168
:1015C000B022BC23BA255200A1581A32A25C6D0089
:1015D0005B00E35C0092C948625905F023FD1023CB
:1015E0006351D6E7C64D2B68013B2B60002B00D121
:1015F0004EE3BC235B00E35C002BCAD0BD235B0041
:10160000E35C002BC5D0FFF719FCFFF799FBBA2369
:101610001F225B00E250BCE7B94D2B68013B2B60F9
:10162000002B00D1B0E3BC235B00E35C002BB0D007
:10163000BD235B00E35C002BABD0FFF7FFFBFFF7A4
:101640007FFBFFF75FFBBA231F225B00E250A0E79E
:10165000B022BC23520081581A32825C5B00C35C0A
:101660000092A6481C2205F0DDFCFFF763FB072271
:10167000A34B1A60BA2316325B00E25089E7A04DF3
:101680002B68013B2B60002B00D117E3BC235B00D0
:10169000E35C002B00D07CE77B33FF33E35C002B63
:1016A00000D176E7FFF7D6FBFFF74AFBFFF714F907
:1016B000FFF722FBBA231B225B00E25069E7904D43
:1016C0002B68013B2B60002B00D173E3BC235B0034
:1016D000E35C002B00D05CE77B33FF33E35C002B43
:1016E00000D156E7FFF7B6FBFFF72AFBBA231B2210
:1016F0005B00E250FFF7F0F8FFF7FEFA49E7FFF76B
:10170000B5FB051E00D044E7B022BC23BA26520028
:10171000A1581A32A25C76005B000092E35CA259E9
:10172000764805F07FFCA55133E7FFF7FDFAB022BC
:10173000BC23BA255200A1581A32A25C6D005B008E
:10174000E35C00926D48625905F06CFCFFF7F2FA19
:1017500007226B4B1A60192363511AE7FFF7E4FA6B
:10176000B022BC23BA265200A1581A32A25C5B00F8
:101770007600E35C00926148A25905F053FCFFF744
:1017800075FB050001005F4805F04CFC002D00D002
:10179000FFE65D4805F0BCFB5C495D48FFF75EFD78
:1017A000A551F6E6B022BC23520081581A32825C61
:1017B0005B00C35C00925148142205F033FC00F03A
:1017C00047FC002800D1E5E1524805F0A1FB524951
:1017D0005248FFF709FDBA231A225B00E250D8E60F
:1017E000B022BC23520081581A32825C5B00C35C79
:1017F00000924248132205F015FC200000F0FEFE86
:10180000002800D1D4E100F023FC454805F080FB1E
:1018100044494548DDE7B022BC23520081581A32C2
:10182000825C5B00C35C00923448122205F0FAFB34
:10183000200000F05FFD002800D195E100F008FCD9
:101840003A4805F065FB37493948C2E7B022BC2366
:10185000520081581A32825C5B00C35C00922748B8
:10186000082205F0DFFB00F0F3FB002800D15BE16C
:10187000284805F04DFB29492E48FFF7B5FCBA234F
:1018800018225B00E25084E6FFF748FAFEF72CFFCF
:10189000002800D0E9E1FFF735F9002800D14DE13B
:1018A000254805F035FBFFF727FABA2311225B0024
:1018B000E2506EE6B022BC23520081581A32825C9C
:1018C0005B00C35C00920D48042205F0ABFB00F006
:1018D000FFFA002800D15FE1184805F019FB18490C
:1018E0001848CAE7200C0110F80B0110D80B0110A2
:1018F00044080110700B0110780B011068050110ED
:101900004C300020A00B0110C00B0110CC0B0110BB
:10191000B8050110F8080110300B0110D0060110B5
:10192000E80A0110B80A0110B40801108C0A01106D
:101930002807011028090110BC09011064060110D4
:1019400094060110A0060110B022BC235200815859
:101950001A32825C5B00C35C0092E348022205F00D
:1019600061FB00F09DFA002800D129E1DF4805F075
:10197000CFFABA2318225B00E2500AE6FEF700FF16
:10198000002800D134E1DA4805F0C2FA66230022CB
:10199000FF33E2540F332032E250FEF79DFFF8E5AB
:1019A000B022BC23520081581A32825C5B00C35CB7
:1019B0000092CD48062205F035FBFFF757FA0128C3
:1019C00000D0E6E5CB4805F0A3FACB49CB48FFF7BA
:1019D00045FCBA2307225B00E250DAE5FEF784FEFD
:1019E000002800D03EE1FEF7A5FE002800D02EE141
:1019F000BC235B00E35C002B00D01EE1C04805F077
:101A000087FAFEF769FFBA2320225B00E250C0E5A7
:101A1000FFF784F9B022BC23BA255200A1581A322C
:101A2000A25C5B006D00E35C0092AF48625905F078
:101A3000F9FAFFF7FBF9002800D1A1E0B14805F061
:101A400067FAB149B148FFF709FC02236351A0E5E9
:101A5000B022BC23520081581A32825C5B00C35C06
:101A60000092A148072205F0DDFA200000F00EFDEB
:101A7000002800D1B0E000F0EBFAA54805F048FAE4
:101A80009D49A448F9E6FFF74FF9FEF763FFFFF71A
:101A900033F9FFF737F8002800D07AE5FEF770FE3B
:101AA000002800D0BAE1BC235B00E35C002B00D12E
:101AB000A4E1FEF7F3FD002800D0C8E1BD23002219
:101AC0005B00E25465E5B022BC23520081581A3213
:101AD000825C5B00C35C00928348052205F0A2FA99
:101AE0008D4805F015FA200000F024FB051E00D0FB
:101AF000BEE0AA235B00E258102A04DD1C33E15843
:101B0000012900DC84E1854805F002FAFFF796F927
:101B1000834805F0FDF983498348FFF79FFBBA230B
:101B200006225B00E25034E5804805F0F1F9BA2363
:101B300009225B00E250FEF791FE2AE5FEF7FAFD6E
:101B4000002804D0FEF740FE002800D021E5FEF773
:101B5000F1FD002800D158E1BC235B00E35C002BC1
:101B600000D016E572489CE6724805F0D1F962494A
:101B70007148FFF773FBBA2313225B00E25008E5BC
:101B80006E4805F0C5F96E496E48FFF72DFB182326
:101B90006351FEE46C48FFE46C4805F0B9F96C4908
:101BA0006C48FFF75BFBBA2305225B00E250F0E4D0
:101BB000694805F0ADF9BA2314225B00E250E8E46D
:101BC000664805F0A5F966496648FFF747FBBA2362
:101BD00004225B00E250DCE4634805F099F96349B4
:101BE0006348FFF73BFBBA2308225B00E250D0E4D6
:101BF000FEF772FEB022BC23BA265200A1581A3258
:101C0000A25C5B007600E35C00923748A25905F0C5
:101C100009FA00F0D1F905000100564805F002FA72
:101C2000002D00D1DCE0544805F072F953494948D1
:101C3000FFF7DAFA1A23A351ABE4FEF763FF00289B
:101C400000D0FFE0BA2309225B00E250A1E4662342
:101C50000122FF33E254FFF749F8BA2310225B0058
:101C6000E25096E4FFF766F8BDE6FFF763F812E688
:101C700000F0EEF9022D00D1DCE0032D00D1D3E01D
:101C80003F4805F045F93F492248FFF7ADFAF6E530
:101C9000B022520081581A32825C7933FF33C35C20
:101CA000009211481E2205F0BDF904231D222B606D
:101CB0007133FF33E250FFF73DF89AE4B02252004F
:101CC00081581A32825C7933FF33C35C0092064834
:101CD0001A2205F0A7F9072319222B606E33FF3370
:101CE000E250FFF727F8D1E468050110040601105F
:101CF000F80901105C080110B40801108C080110EB
:101D000068090110900501102C040110B80501109C
:101D10009408011038070110DC060110F4070110C7
:101D20001C08011044080110540801103809011062
:101D3000E4090110C40A0110E00A0110C0050110F5
:101D4000EC050110F80501103C0B0110AC06011068
:101D5000C8060110D0060110140B01103C0601103A
:101D60005006011058060110C0080110E4080110C7
:101D7000EC080110140A01103C0A01106C0A011051
:101D8000F806011028070110B022520081581A32BB
:101D9000825C7933FF33C35C009232481D2205F028
:101DA00041F904231E222B607133FF33E250FEF70A
:101DB000C7FF38E4B022520081581A32825C79336E
:101DC000FF33C35C00922748192205F02BF9072343
:101DD0001A222B606E33FF33E250FEF7B1FF75E439
:101DE000214805F095F86623FF33E5541F49204844
:101DF000FFF734FA1223A351FFF7CBFBFEF74EFC9B
:101E0000002821D0FEF77EFF58E6FEF775FFA3E617
:101E1000184805F007F9184918482EE5184805F044
:101E200077F8FEF7F7FC3EE6164805F071F816491C
:101E3000164822E5164805F06BF816491348FFF7D7
:101E4000D3F91CE51448DAE5FEF762FF36E61348DD
:101E500005F05EF8FEF75CFFBA2301225B00E2505A
:101E60002CE6C04668050110AC060110780A011086
:101E7000800A0110A8070110E4070110EC07011007
:101E800020050110780701109C0701107007011050
:101E900044070110640701108C090110440501106A
:101EA00010B50CF095FC0023002801D0180010BDDF
:101EB000044805F02DF804490448FFF795F9642318
:101EC000F4E7C046A40C0110D40C0110E40C01107E
:101ED00070B52948DEB005F01BF8284D0122290015
:101EE00027480AF019F8002834D16846254B264ABD
:101EF00016A90BF03BFA040068460BF0FFF9002C22
:101F000013D17221214EFF22694430000EF00AF8ED
:101F1000FF230122F45431001D480AF0E1F80024A7
:101F2000002821D120005EB070BD2100194805F0C5
:101F300079F819491948FFF757F9002229000020BC
:101F400009F0EAFF002000F0E5FE0123C269134317
:101F5000C361E7E701000400114805F063F8114987
:101F60001148FFF741F9DDE7010004000F4805F0D3
:101F700059F80F490F48DEE7F00C01100C0D011065
:101F8000A81E0020640D0110E0070110543000204D
:101F9000102100206C0D01109C0D0110A80D0110E6
:101FA000100D011058060110540D0110B00D011054
:101FB00094060110A006011070B51A4804F0A8FF9D
:101FC000194D01222900194809F0A6FF002809D15E
:101FD0000A22174917480AF083F8002400280BD179
:101FE000200070BD01000400134805F01BF81349E0
:101FF0001348FFF7F9F8F3E701000400114805F072
:1020000011F811491148FFF7EFF8002229000020CC
:1020100009F082FF002000F07DFE0123C269134316
:10202000C361DDE7EC0D01100C0D0110A81E0020AE
:102030005430002010210020080E01105806011015
:10204000540D01104C0E011094060110A006011051
:1020500010B513480BF096F800281AD10022002082
:10206000104909F059FF002809D1002000F052FE64
:1020700001230024C2691343C361200010BD010085
:102080000400094804F0CEFF08490948FFF7ACF8FE
:10209000F3E704000100074804F0C4FFEDE7C04681
:1020A000102100200C0D0110AC0E0110580601107B
:1020B000DC0E0110880E011010B582B0042201A9B7
:1020C00004006B4609480AF015FC009A011E01D174
:1020D000042A05D0064804F0A5FF002002B010BD78
:1020E000019B01201BBA2360F8E7C04610210020A5
:1020F000EC0E011000B583B001A9030E0B700314A0
:102100004B7003128B70C87004226B4607480AF0AC
:1021100043FD009A011E02D10120042A03D0044885
:1021200004F080FF002003B000BDC0461021002055
:102130001C0F0110F0B5624983B00500614804F03E
:1021400071FF614C614E0A222100300001AB0AF0A0
:10215000D1FB019A011E01D10A2A06D05C4804F085
:1021600061FF0224200003B0F0BD200059490DF0AA
:102170009FFE002864D104222100300001AB0AF048
:10218000B9FB019A011E51D1042A4FD1200004222B
:1021900051490DF08DFE041E54D10B222900300050
:1021A00001AB0AF0A7FB019A011E44D10B2A42D1D0
:1021B0002900C8220B31300001AB0AF09BFB019AC9
:1021C000011E38D1C82A36D129001422D33130005B
:1021D00001AB0AF08FFB019A011E2CD1142A2AD1DF
:1021E0002F00E73764223900300001AB0AF082FB90
:1021F000019A011E1FD1642A1DD1042201A96B4638
:1022000030000AF077FB009A011E14D1042A12D183
:10221000A6222800019B52001BBA5130AB50FF3060
:10222000FFF74AFF00280FD101249BE7284804F05C
:10223000F9FE032496E7264804F0F4FE012491E712
:1022400002248FE703248DE728005530FF30FFF785
:1022500033FF0028E8D028005930FF30FFF72CFF6B
:102260000028E1D028005D30FF30FFF725FF00286F
:10227000DAD03900194804F0D5FEA6235B00E958EE
:10228000174804F0CFFEA8235B00E958154804F076
:10229000C9FEAA235B00E958134804F0C3FEAC232F
:1022A0005B00E958114804F0BDFEAE235B00E9581D
:1022B0000F4804F0B7FE2800FEF7CEFC52E7C046F8
:1022C00054300020500F01105832002010210020FF
:1022D000EC0E0110901200209C120020700F0110D3
:1022E000840F0110940F0110B00F0110D00F0110D6
:1022F000E80F0110F0B55E4983B007005D4804F0B7
:1023000091FE5D4C09225D4920000DF00BFE00237B
:102310005B4E0A2263722100300001AB0AF03CFCE4
:10232000019A051E01D10A2A06D02900554804F059
:1023300079FE012003B0F0BD0322534920000DF0C7
:10234000F1FD0422E5702100300001AB0AF024FC0D
:10235000019A051EE9D1042AE7D13900063220008E
:102360000DF0E0FDA5720B222100300001AB0AF058
:1023700013FC051E71D1019A0B2AD6D13900BC324B
:102380000B3120000DF0CEFDC723C822E5542100FB
:10239000300001AB0AF000FC051E5ED1019AC82A8C
:1023A000C3D13900B53AD33120000DF0BBFD210077
:1023B00014223000E57401AB0AF0EEFB011E4ED191
:1023C000019A142A4CD139004F32E73120000DF028
:1023D000A9FD632300222100E254300001AB6432E6
:1023E0000AF0DAFB011E3AD1019A642A38D1A623F9
:1023F00069465B00FB5830001A0E0A711A144A71C4
:102400001A128A71CB71042201A96B460AF0C4FB2F
:10241000011E2AD1009B042B27D1A8235B00F8586A
:10242000FFF768FE002801D1012083E7AA235B00A3
:10243000F858FFF75FFE0028F6D0AC235B00F85891
:10244000FFF758FE0028EFD0AE235B00F858FFF7E7
:1024500051FE01235840C0B26CE7019A65E7019A2A
:10246000084804F0DFFD012064E7009AF8E7C04661
:102470005430002008100110583100209012002024
:10248000102100201C0F01109C120020F0B5DE4628
:10249000574645464E46E0B507008FB04C494D487B
:1024A00004F0C0FD39004C48E73104F0BBFDA8241E
:1024B000AA23AC2264005B005200FB58BA58395979
:1024C000464804F0AFFD00223B599046002B5FDDEB
:1024D000434BB9469B46434D5D441421404602F0B0
:1024E000B3F800296ED00A21404602F0ADF8002969
:1024F0005ED0AC234A465B00D358002B3FDD4346F9
:102500001B030393AA235B00D25800230193434685
:102510000293012A31DD019B0026DF02039B1F434A
:10252000314B9A462F4B984670023843FEF7F0FA2B
:102530002C4A5946504605AB0AF0DCF9059A0028AA
:1025400034D1424526D15C4620780134FEF73EFB6B
:10255000AC42F9D1AA224B4652009A580136D30F09
:102560009B185B10B342DFDCAC23484601995B004B
:10257000C358013101918B42CBDC029B9846012369
:102580004A469C465033FF33D358E0444345A4DCCD
:10259000002004E00021154804F044FD01200FB0A4
:1025A000F0BCBB46B246A946A046F0BD0100F2E72A
:1025B00042460F4906A804F0DBF90E4806A9FEF7CB
:1025C0004DFE96E741460C4804F02CFD8BE7C046D3
:1025D00054300020281001104C100110541001102C
:1025E0004C2C00208202000010210020A8100110B5
:1025F000941001109C1001107C100110F0B5DE4603
:102600004E46574645468346E0B54B498FB04B484A
:1026100004F008FDAA235A465B00D358A824AC2234
:102620005946640052008A584548095904F0FAFC9A
:102630005B4600221B599146002B5EDD414B424D0B
:102640009A46424B554498461421484601F0FCFFF7
:1026500000296CD00A21484601F0F6FF00295CD021
:10266000AC235A465B00D358002B3DDD4B461B0381
:102670000393AA235B00D258002301934B46029395
:10268000012A2FDD019B0026DF02039B1F432E4BF7
:10269000994670023843FEF73BFA5446FEF7B8FA03
:1026A00020700134A542F9D1274A5146404605AB76
:1026B0000AF072FA059A00282DD14A451FD1AA22A4
:1026C0005B4652009A580136D30F9B185B10B342F9
:1026D000DFDCAC23584601995B00C35801310191FE
:1026E0008B42CDDC029B994601235A469C465033CF
:1026F000FF33D358E1444B45A6DC002004E0002121
:10270000134804F08FFC01200FB0F0BCBB46B2466A
:10271000A946A046F0BD0100F2E74A460D4906A8C9
:1027200004F026F90C4806A9FEF798FD98E74946FB
:102730000A4804F077FC8DE754300020D8100110CF
:10274000541001104C2C00208202000010210020A7
:102750001411011000110110081101107C1001105A
:10276000F0B54E464546DE465746E0B58FB01E00F2
:10277000019318AB20CB0B91197807230C91297882
:1027800006950B405C1EA341C90859186B78079148
:10279000002B00D183E0002900D180E0013A0D92A6
:1027A0000122F1009246089106320021934604006E
:1027B0000A910A98069A84460C99D2788A1A534349
:1027C0000199079A634453430A0042430B98053327
:1027D0008446624402928C460A00099353460021C3
:1027E0000D989B1A6044049003910593099A069BE7
:1027F0009446039A63449B5C019D984608239C463B
:10280000029B464699464D44A946049F0AE063460A
:10281000013BDBB29C46019B7608984663464744E1
:10282000002B29D053463342F1D0059B9846019B9B
:10283000B844002BEBD035000299237842468B42F6
:1028400015D9607882420CD2D00843435846564688
:10285000104086403000E6685B18F65C3043E6685E
:10286000F054BA4203D0237801328B42E9D80131C7
:102870004945E2D12E00CAE70899049A8C46039B89
:1028800062440492079A013303939A42AED10A9AA2
:10289000069B01325B78D2B20A929A4289D30FB07A
:1028A000F0BCBB46B246A946A046F0BDF0B5CE4648
:1028B0004746060080B508001900D308B370F368D6
:1028C0008BB00133F3602E4B03AC03932D4B307070
:1028D00004932D4B727005932C4BF17006932C4B87
:1028E00007932C4B089300232376531E2371337ACE
:1028F000002B08D010235200637290423BDD02236C
:102900006373203307E014235200637290422EDC7D
:1029100012236373DF33252763741F4B6F4498467C
:102920001E4B02AD994609E0431C03D141461C48A9
:1029300004F078FB0134A74213D0F1780022237809
:102940002A706B707068022300922A000CF02AFB38
:10295000831CE9D141464846013404F063FBA74299
:10296000EBD101200BB0C0BCB946B046F0BD02238C
:102970006373EF33CFE7023363731033CBE7C046A3
:10298000AED580A800D300408D00A1C8DA0081FF39
:10299000D900DB30A4A6AF2044110110741101103E
:1029A0005411011000B585B000226B461A73012343
:1029B0000B405A21494219436B465973C17802238F
:1029C0004068009203AA0CF0EDFA831C07D0431C68
:1029D00003D10549054804F025FB05B000BD0249B7
:1029E000034804F01FFBF8E74411011054110110D3
:1029F00074110110030010B50021C0681A6902F0BB
:102A0000EDFC10BD037810B58B420DD9447894428B
:102A10000AD9D40863435B180721114001228A4078
:102A2000C068C15C0A43C25410BDC046F0B54E46F2
:102A300045465746DE46E0B583B00C9D81462C786E
:102A4000924698460E00002C16D05F00104B47446B
:102A50009B467F002300203B01355E2B13D85B464D
:102A6000310001940093524643464846FFF778FEF2
:102A70002C78F619002CEDD103B0F0BCBB46B24661
:102A8000A946A046F0BD2C78F619002CE2D1F3E758
:102A900094110110F0B5DE4657464E464546E0B566
:102AA00087B0844602930020352A00DCAFE04B7FDC
:102AB0000A7F1B021343012B00D0A8E00D00CC7F3E
:102AC0008B7F1E35AA7824021C43EB781204144332
:102AD0001B06234300D09AE0CC7B8B7B0A7C24022C
:102AE0001C434B7C120414431B062343CB189A7BD4
:102AF0001C7C12042243DC7B2402224308D09A7CF3
:102B00001C7DDB7C120422431B02134300D18CE0AA
:102B1000CB7C8D7C0A7D1B022B434D7D120413431D
:102B20002D061D4307231A002A40541EA241EC170C
:102B300023405B19DB10D3181A00049303231342BC
:102B400003D09A43130004330493CA7D8C7D0B7E1B
:102B5000120214434A7E1B0423431206CC7A1A4302
:102B60008B7A1600039224020A7B1C434B7B1204CF
:102B700014431B062343C918002E4FDD0122524285
:102B8000330090464344994603920592002D3ED06F
:102B9000109B4B449B465B46DB08072201935B4638
:102BA000012613409E4073B29A46029A002303E026
:102BB00001330132AB4220D00726DC080C5D9E4376
:102BC0003441012634408442F2D164462478944250
:102BD000EED966467678B345EAD2019E0133744356
:102BE0006646F668A418365D2700544626436446B8
:102BF000E4680132E655AB42DED1049B9846059B62
:102C000041449846039BC144C3444B45C3D107B0DC
:102C1000F0BCBB46B246A946A046F0BD002EF6D099
:102C20000023994601330593B0E7013070E7C046B1
:102C3000F0B5CE46474680B5060085780778112066
:102C400087B004220021684402F0C8FB212304ACB1
:102C5000013D23700133EDB2E3707B1EA3706571FB
:102C6000402F03D1202363703F33A3701627224BDC
:102C70006F449846214B03AD994608E0431C03D1AD
:102C800041461F4804F0CEF90134A74213D0002377
:102C900022782B706A70F17800932A0002337068F2
:102CA0000CF080F9831CE9D141464846013404F018
:102CB000B9F9A742EBD140220024F368013B1A7016
:102CC0003369F2680133F1787068013A00940CF0CE
:102CD00069F9831C0AD0431C03D10A49084804F04F
:102CE000A1F907B0C0BCB946B046F0BD05490348DC
:102CF00004F098F9F5E7C046441101107411011071
:102D0000541101108411011043001818400070473D
:102D100001207047012805D8AC239B005843024B83
:102D2000C01870470020FCE7A01200200120704767
:102D3000012803D8024B8001181870470020FCE7D7
:102D400050150020D0231B061B68F0B59A0045469D
:102D500090464146934ADE465258574693465A1E7D
:102D6000934130224E465B421A4013008E4AE0B532
:102D7000944683B0634401938C4B08269A463500F1
:102D8000083DEA081300019908339B005C58002CA9
:102D900027D05B46002B2ED001230F279946390000
:102DA0002140274217D0524640462B001258203B64
:102DB000EA40DB1713404A4613420CD107220800B1
:102DC0002A40920090400200EB0879483C339B0077
:102DD0001A502800D84724090135002C01D0B542EB
:102DE000DDD30836282ECAD103B0F0BCBB46B246AC
:102DF000A946A046F0BD0F2318002040234209D069
:102E000041466A4B59583300E940283BDB0F0B42DF
:102E100000D197E02309F11F002BE2D00F22100010
:102E200018401A4211D04246604B9A583300CA40AB
:102E3000273BDB0F134208D10722CB081140890042
:102E400088405B4A3C339B009850230AB11F002BFB
:102E5000C7D00F22100018401A4211D04246534BDF
:102E60009A583300CA40263BDB0F134208D1072291
:102E7000CB081140890088404D4A3C339B00985054
:102E8000230B711F002BACD00F22100018401A42E8
:102E900045D1230C311F002BA3D00F221000184066
:102EA0001A4258D1230DF11E002B9AD00F22100088
:102EB00018401A4262D1230EB11E002B91D00F226E
:102EC000100018401A4211D04246384B9A5833002D
:102ED000CA40223BDB0F134208D10722CB08114026
:102EE00089008840324A3C339B009850240F711E61
:102EF000002C00D175E7534642469A583300CA4029
:102F0000213BDB0F134200D06BE70722CB081140B7
:102F100089008C40264A3C339B009C5061E7424626
:102F2000224B9A583300CA40253BDB0F1342B0D1E5
:102F30000722CB081140890088401D4A3C339B0082
:102F40009850A6E707231D40AD00A840184B3C321F
:102F50009200D0505EE74246144B9A583300CA4064
:102F6000243BDB0F13429DD10722CB08114089007F
:102F700088400F4A3C339B00985093E742460B4BE6
:102F80009A583300CA40233BDB0F134293D10722E8
:102F9000CB08114089008840054A3C339B0098507B
:102FA00089E7C046643200200041014070380020AB
:102FB0000040014010B54024084A83009A18126866
:102FC000C0005440C0222240054CA44663441A600D
:102FD000044B9C466044416010BDC04604C00140A3
:102FE00004D00140004001400B4B80009C466044EF
:102FF00000290ED100230431002A00D119008022BB
:1030000003685201594094460C2360440B4003600E
:1030100070470C210823EFE704C00140064B8000F5
:10302000C3181B680901594030231940034B9C46C3
:10303000604401607047C04604C0014004D00140B4
:10304000F8B545469846D0231B06DE461C689B46CD
:103050002B4B57469A46A3004E469946E0B5534639
:1030600016004A469B5807000D00002B34D04346FB
:10307000002B3FD053464A4641469950D0231B0669
:103080001C6807201F4A631E9C419446FA081100E1
:10309000302338408000854064421B4823403C3147
:1030A0006344890092000D509B18002E0ED08022A0
:1030B00092019446634401210D201D6000F010F937
:1030C000F0BCBB46B246A946A046F8BDC02292015C
:1030D000944663441D60F3E74346002BD1D053462A
:1030E00041460D2099500022084900F035F95B4611
:1030F0001C68C6E70D20054900F022FABAE7C04671
:10310000643200200041014000400140452D001084
:103110008000002905D0064B9C4640236044036094
:103120007047044B9C46402360440360F8E7C04668
:1031300004E0014004F001400123D02283404021FB
:10314000120693629361094A83009A181268C000BC
:103150005140C0220A4006498C4663441A60054B20
:103160009C460523604443607047C04604C001404C
:1031700004D00140004001400FB400B5084883B0BE
:1031800003F0C6FE049B002B07D005A9180001918F
:1031900003F020FC034803F0BBFE012003F032FCE7
:1031A000741301104C21011070B5EFF3108C72B63E
:1031B0000D4D2B68002BFCD0BFF35F8F0724CB088D
:1031C000C618C05C01230C40A3401C00044003420D
:1031D00007D103433370BFF35F8F2C608CF31088EB
:1031E00070BD1000FFF7C8FF2C0100D0F8B54746AE
:1031F000CE46884680B5EFF3108C72B6214D2C6810
:10320000002CFCD0BFF35F8F9A422CD8D40807273C
:10321000055D061901241740BC402C421FD0072130
:103220000127894609E0D408055D06194C46390096
:103230001440A1400C00294211D001329342F2D235
:1032400001204042BFF35F8F00220E4B1A608CF3C7
:10325000108800280FDBC0BCB946B046F8BD2C432F
:1032600010003470EEE7BFF35F8F00232B608CF308
:103270001088012040424346002BECD00898FFF70D
:103280007BFFC0462C0100D0044A1078431CDBB2FF
:10329000172B00D9102313707047C04690150020DB
:1032A0000021044B044ABFF35F8F02C39342FAD15B
:1032B0007047C046000100D0800100D0054B064A8F
:1032C0001360064A136053609360D36013615361C7
:1032D000936170478080808000E400E004E400E0B7
:1032E0001F2318401E3B8340002905D0C021044AFB
:1032F0004900535013607047802201498B50FAE710
:1033000000E100E070B50D00EFF3108672B60F4AD1
:103310001368002BFCD0BFF35F8F0D4B10309B6800
:1033200084001B590B4A934203D09D4201D001F007
:10333000ADF8074B9B681D51BFF35F8FBFF35F8FE5
:103340000022024B1A6086F3108870BD240100D061
:1033500000ED00E0CD010010F0B557464E46DE46C8
:103360004546E0B585B0060002911700EFF3108BDB
:1033700072B6674A1368002BFCD0BFF35F8F00253D
:10338000644B5D579A46002D00DAA4E06B00624C56
:1033900003935B199B009846A146C1444B46524695
:1033A0009B79103613705D4BB2009B68019299585F
:1033B0000B1B2F2B34D95A4B994200D0A4E0039B0E
:1033C000584A9C46584B6544AD006353434602330C
:1033D0006519E418554B0121043B1B1B1B055B0DB4
:1033E00013436B80524BEF71AB80FF23AB71029B99
:1033F000AB604B460B431900484B019A9B689950B0
:10340000BFF35F8FBFF35F8F0022414B1A608BF3D6
:10341000108805B0F0BCBB46B246A946A046F0BD38
:1034200001200A008243D379BB422FD845464E463D
:10343000130040491B1B5B415943090D3A4B635331
:103440003A4B02356519043B5B1B1B05354D5B0D83
:103450002B4373800426B446E0444444131F1B1BD3
:103460004C46A17102991B05A16049465B0D2B4397
:10347000A380314BE77101431360BDE75800C018CA
:1034800080002018C679BE422BD902000623D356ED
:10349000002BF3DA101D8246284880460426764227
:1034A000B446E14450464E46361A3005400D824639
:1034B00056461C48957106439680039A9446654487
:1034C0001D4AAD00641922604246A371029BA2808E
:1034D000E771A36090E700F0D9FF002553465D57E0
:1034E00054E7101D824690884005001584464046EA
:1034F000D444664604302018301AE0260005400DFA
:10350000360230438046C9E700F0C0FF57E7C046A7
:10351000240100D08F3800209415002000ED00E039
:10352000CD01001000E0FFFF00A1FFFFC415002047
:1035300001BDFFFFAAAA00000148804701BD0000AD
:10354000F0B5DE4657464E464546E0B50C0083B022
:10355000EFF3108972B65F4A1368002BFCD0BFF3FB
:103560005F8F5D4B9A68030010339F00D5595B4A0B
:10357000904695423DD0A5424ED0594EAA1B2F2AC7
:1035800037D8584A934612689446012261469246BB
:10359000824011401F2210405246824092460191C3
:1035A0008022514658468150BFF35F8FEFF305826A
:1035B0009346002A32D101232A009A43906884421C
:1035C00008D17CE04B005B189B00F318986884429C
:1035D0002ED01A00062151560029F3DA84424DD02C
:1035E000019B002B1FD0C02251463E4B52009950E8
:1035F0001960394B9B68DD51BFF35F8FBFF35F8F5D
:103600000022344B1A6089F3108803B0F0BCBB462B
:10361000B246A946A046F0BD1500EAE79342CAD0DB
:1036200000F034FFC7E7802351462E4AD150E0E72F
:1036300006215956002922DB4A0050188000341810
:103640008046A0689860E079D8710620205698716D
:10365000002825DBA488F01A6405241544440019C9
:10366000E0240005400D24022043988052181E4B90
:103670009200B6181A781970B271B1E71300594662
:1036800000290FD1FF3191711849918016490A78AC
:103690009A71174A9B1B5B415A43120D0A709FE7B0
:1036A0001448E2E7144A1549D21A083A5002400D6C
:1036B00001439980124952080A43DA8090E70621B3
:1036C000515613000029B7DA5A46002AEAD1454676
:1036D000DCE7C046240100D000ED00E0CD01001081
:1036E0009415002000E100E08F38002001BDFFFFAD
:1036F000AAAA000001BD0000CE15002000F0FFFFC7
:1037000000F8FFFF70B501240443EFF30581EFF3E8
:10371000108C72B6214A1368002BFCD0BFF35F8F68
:103720001F4B05001F4AED1A6D416A43120D1E4DD5
:103730008900AE6852B27658A6421CD0062159566E
:1037400091421CD012215956914222D01E21595625
:10375000914220D02A2159560324914210D0134B74
:1037600019781A708171BFF35F8F00220B4B1A60BA
:103770008CF3108870BDAB680D4C5C50EFE70024F3
:103780006100091989005B18FF2199710949998025
:10379000E5E70124F4E70224F2E7C046240100D063
:1037A00094150020AAAA000000ED00E08F38002048
:1037B000CD01001001BDFFFF70B504000E00150023
:1037C000FFF762FD0100200000F006F8A680E5800A
:1037D000BFF35F8F70BDC046024B9C4661448900B9
:1037E0000160704740000034F8B5134D134E2C00B3
:1037F000FF27B5421ED22368002B0FD0FFF744FDF0
:1038000001002800FFF7E8FFA780BFF35F8F0834AF
:10381000B4420FD223682500002BEFD1FFF734FD0F
:1038200001002800FFF7D8FF2771BFF35F8F08342E
:10383000B442EFD3F8BDC046901E0020A81E002061
:1038400010B50400FFF720FD01002000FFF7C4FFC2
:10385000FF232371BFF35F8F10BDC0460A4B196869
:10386000EFF3108072B60A68002AFCD0BFF35F8FB6
:103870001B68BFF35F8F00221A6080F3108840BF7F
:10388000002000217047C0467C380020F0B5DE469D
:1038900057464E464546E0B585B0EFF30582032313
:1038A00013409A0011000392B64A525890460122E2
:1038B0009A409146B44B1A604B46B4484363434622
:1038C00008229B5E9A46002B3DDA43469B881BB23A
:1038D000002B00DBA1E043469B79002B00D0F3E0F6
:1038E000434608241C5F002C23DB424652696300D8
:1038F00094461B19DB0063449C68DD68631C00D19F
:103900000FE1A248039984466144826A0B69A61AB2
:103910009B1A9E4215D34A46036A1A4211D09B480D
:1039200000F046FB241A8D41002D02DCC4D1002C8E
:10393000C2D040BF05B0F0BCBB46B246A946A046C7
:10394000F0BD0C61EBE7424652695B00934653447D
:10395000DB009B445B469E68DF6800F029FB801B10
:10396000B9410029B1DB002F00DAE5E05B46884A67
:103970001B69934200D1D8E041465A460820085EB0
:103980005288000410435A465169984704000D00BC
:1039900023002B4300D1CFE0002D00DBE8E0361BF5
:1039A000AF4134003D005B469C60DD600021595E04
:1039B000002900DA89E743465B6922009C462B0018
:1039C00048004018C00060448668C768921BBB412D
:1039D000002B00DA79E74346664602000094019521
:1039E00019810CE07B00DB19DB00F31800980199CA
:1039F0009C68DD68001BA941002904DB1A00002334
:103A0000D75E002FEEDA5B461F8053461380434695
:103A10009B881BB2002B00DA5DE743461A69EFF37F
:103A2000108172B61368002BFCD0BFF35F8F434642
:103A30009B8842461BB29A4601235B4293801369DE
:103A4000BFF35F8F00221A6081F310885346002B6A
:103A500000DA40E743465B699C46082343449B46A3
:103A600053465F0043465744FF0008229A5E67446E
:103A70005E46BC68FD68002A19DB3B000094019596
:103A800067469C4604E01E000023F25E002A0BDB22
:103A90000098019953009B18DB00FB189C68DD68B7
:103AA000001BA9410029EEDA6346BC461F005346BD
:103AB000338000217B5E3A809A46002BD0DA434661
:103AC0009B79002B00D10BE70023424693714346BC
:103AD00046460821595E08364B1C00D129E7474667
:103AE0008C46556902E006004B1C17D04B005B1852
:103AF000DB00E8180A00E95E43881BB2002BF2DA0B
:103B000001235B42DC178360C4606245ECD03180E6
:103B10003B89944603803A814B1CE7D1B846644602
:103B2000E1E66B1C00D0ECE6F9E65B465C69200040
:103B300023699847002821D15B4642461B881381A0
:103B40001269EFF3108372B611680029FCD0BFF33D
:103B50005F8F4246594652880A80424651465180FC
:103B60001269BFF35F8F0021116083F31088ACE608
:103B7000064800F01DFA24184D4114E765682468D2
:103B800006E7C046603800203C7005400040054014
:103B90008D38001070B52E4C2569002D04D00A21F7
:103BA0002C48FFF719FE70BD2B4E0321300000F0AA
:103BB000F5F9E660FFF768FB284B03229C46D0230B
:103BC00022701B061B6801216370254B6044A360B3
:103BD0000F23800020610220638063694942A18035
:103BE00019800231198647311D83585218315A52B3
:103BF00075325C39995218320131995218320131BB
:103C00009952183201319952083518329D520231B9
:103C100018329952183201319952183201319952A1
:103C2000183201319952183201319952183201314A
:103C300099520C4B0C49DC6001303562FFF762FB96
:103C400001210320FFF74CFB084B1D60A7E7C0468E
:103C5000DC1500207C380020004005404000003486
:103C6000FFFF1000603800208D38001038600540DC
:103C700070B5C646010000B50469EFF3108C72B64A
:103C800020680028FCD0BFF35F8F02200D5E4869DA
:103C90006C0080466419E4004444002D01DB208858
:103CA00048800869BFF35F8F002606608CF3108898
:103CB000002D30DBE36063880598013320615B04ED
:103CC00006985B0CA26060611A1C002B21D090B298
:103CD0002B04628018430A69EFF3108672B61368EA
:103CE000002BFCD0BFF35F8F8B8823808D800B6906
:103CF000BFF35F8F00221A6086F310880B780132C1
:103D00009A40CB6805498C4663441A6040BCB04673
:103D100070BD0122DBE701204042F7E73C200000B4
:103D200010B543890A14934233DD53009B1842694E
:103D3000DB00944604696344EFF3108C72B622688A
:103D4000002AFCD0BFF35F8F5A88090494B2090C93
:103D50008A4208D00369BFF35F8F00221A608CF398
:103D60001088002010BD8022120214435C800123C1
:103D700002698371BFF35F8F002111608CF310889B
:103D8000054902788C469340C26801206244136062
:103D9000E8E70020E6E7C0463C200000F0B504005C
:103DA0000D0006267642F717C64636196F4100B554
:103DB00082B08F4214D811D000F002F932003B00DB
:103DC000121A8B41002B15DC002B44D02000290057
:103DD00000F02AF902B080BCB846F0BD8642EBD9AB
:103DE0000026002700F0ECF832003B00121A8B414D
:103DF000002BE9DD00F0E4F832003B00121A8B41A1
:103E0000002B0ADB00230193144B3200009314486B
:103E10003B00FFF72DFF0028D8DBB0460026BC464C
:103E2000104A114F7B6A9C4504D8B96A8845CDD9A0
:103E30009C45CBD11168EFF3108072B60B68002B54
:103E4000FCD0BFF35F8F1368BFF35F8F1E6080F3FA
:103E5000108820BFE6E7002AB8D0CBE75D38001015
:103E6000DC1500207C3800200040054070B50600BD
:103E700000F0A6F8FA2204000D0000233000002113
:103E8000920001F02BFA00196941002902DBFFF7CB
:103E900085FF70BD012001494042F8E7FFFFFF7F29
:103EA000F0B5CE46474680B504000D0083B0EFF371
:103EB0000587002F0DD0364A0020536A8B4203D36A
:103EC000926A0130A24250D303B0C0BCB946B0469A
:103ED000F0BD304B9846DB689946434648461E780D
:103EE00000F066F80B00494602000436B60071582F
:103EF00020008E1A2900801A99418F4211DC0ED0C1
:103F000020BF234A0020536AAB42DDD3926A0130BE
:103F1000A242D9D2E81A421E9041C0B2D4E78642EA
:103F2000EED900F04DF822002B00121A8B41002B25
:103F300020DB00230193184B2200009340462B0006
:103F4000FFF796FE011E15DD114B2E005A6A9542B1
:103F50001CD89B6AA34217D34046FFF7E1FE0C4AE8
:103F60000020536A9E42AFD8D0E7581A421E9041B3
:103F7000C0B2A9E7064A0020536AAB42A4D3926AB2
:103F80000120A242A0D2C5E79542E5D120BFE3E7D8
:103F900000400540DC1500205D38001010B5024AD5
:103FA0000248FFF701F910BD90130110783200208C
:103FB0000300416A0A00986A596A8A42FAD1704736
:103FC000034B596A0A00986A596A9142FAD17047BC
:103FD0000040054070B504000D00124A536A1900F4
:103FE000966A536A8B42FAD13000190024184D4169
:103FF000AB4211D80ED02B000A494A6A9A42FCD330
:1040000007D1084A02E0516A994202D1916AA1425D
:10401000F9D370BDA642EED9012301246442E5170D
:104020005B42E9E700400540064A536A9942FCD8E2
:1040300007D1044B02E05A6A914202D19A6A824245
:10404000F9D3704700400540F8B5040006200D0084
:1040500000F076F9002842D0364B3749E218534237
:104060005A418023DB039C469205344B62441A601C
:10407000334B1A6010000B689843FBD12D4B802105
:10408000E3185A4253412F4A5B00490099520620D7
:1040900000F056F92900C00000F0FEFA0130C30913
:1040A0001ED1402701226262A362266BF30722D44D
:1040B000E36A254B0620E51800232B60266300F0F9
:1040C0003FF93900800000F0E7FA7022E36A5A40B5
:1040D0007E2313402B601D4B23630323A364F8BD91
:1040E0001B4A93421ED900231A4A1B4F6262A362E5
:1040F000266BF307DCD5194B144AE3181A60656A7E
:10410000A26A0620AD01AD1800F01AF9144900F0BA
:10411000C3FAAD020100280000F0BEFA0021FFF74B
:1041200059FFC5E74006800E9F011A003F180300A3
:10413000B9E7C0460080FCBF08C0004000E0004076
:1041400000F00040803800202C1000000103000027
:10415000FEFF0000FFFF0000C0FF3F003030000006
:104160004E0E0000F8B5DE464E4657464546E0B5D1
:104170008B4605000A991800160000F08DFA0A9B7C
:104180006C001F02324B64199C46A40064446368AF
:1041900081469F4200D967602B1FDBB29846012BF6
:1041A00030D9C02380229B01E31812011A60294BE9
:1041B000AD0059599A4600291BD1226876017240F8
:1041C000E0268023164042465B01E3181E60012A68
:1041D00030D9802380229B01E31812011A605346D4
:1041E0004A4667605A51F0BCBB46B246A946A04653
:1041F000F8BD586900F050FA431C5800C018033845
:10420000FDD2DAE75B46012BCBD1C02303229B0111
:10421000E3181A60023AA3681A42FCD0E02322682D
:10422000760156401E4080230A4A5B019246E318FD
:104230001E60AD005A462168514003220A401A60B0
:1042400001225B469A40A3681A42FCD0C1E7C046EF
:10425000008000407C320020F0B546464F46D646EE
:10426000C0B51F00344B44009C462418A40064448D
:10427000636888461600FF2B02D880235B006360CA
:10428000031FDBB29A46012B30D9C02380229B0149
:10429000E31812011A60294B8500595999460029E3
:1042A0001BD1226876017240E026802316405246D8
:1042B0005B01E3181E60012A30D9802380229B0114
:1042C000E31812011A6080235B0063604B465F5164
:1042D000E0BCBA46B146A846F0BD586900F0DCF92A
:1042E000431C5800C0180338FDD2DAE74346012BBF
:1042F000CBD1C02303229B01E3181A60023AA368C2
:104300001A42FCD0E0232268760156401E408023EA
:104310000A4A5B019146E3181E6085004246216807
:10432000514003220A401A60012342469340A2688A
:104330001342FCD0C1E7C046008000407C32002020
:10434000014B8000C05870477C320020F8B5040053
:1043500020481D0017000E0000F09EF901003800F3
:1043600000F09AF9069B29041B0319432368002BCC
:104370001EDB194B194DE21853425A4180235B0151
:104380009C461203164B62441A60164B1A601700C3
:104390002B689F43FBD1144B2660E2182123A060B9
:1043A00013602368002BFCDA0823E1601360F8BD7A
:1043B0003F2322681340B342DBD1A3681B051B0DCA
:1043C0008342D6D1EE22E368D20213408B42D0D191
:1043D000EDE7C046001BB7000040FDBF08C000402D
:1043E00000E0004000F00040043000008023024A5A
:1043F0009B000B43D362704700800540142310B527
:104400000100188804331B88984710BD162310B587
:104410000100188802331B88984710BDF8B547463D
:10442000CE4680B50F1E19D01423994604330400DC
:104430000025012698464B461888434621681B886C
:10444000984701C4431E9841013540420640AF429F
:10445000F1D13000C0BCB946B046F8BD0126F8E73E
:10446000AA23064A1B0113608D235B00D360044915
:10447000044B19605368002BFCDA7047004002407F
:1044800000B0FA00006002407047C04610B5014815
:10449000FEF772FEB413011070B5074D074EB5421A
:1044A00009D20024013E761BB60808CD98472300A8
:1044B0000134B342F9D170BD98010110D40101104B
:1044C000054B064A06491A60064A074B1A60100057
:1044D0000B689843FBD1704700E00040BFCDFBFE66
:1044E00008C00040FE7F3C0000F00040044BDB6C45
:1044F000002B03D18022034BD2021A607047C046C2
:10450000000011504C201150044A054B1A60054A16
:104510001368DB018033FBD17047C046FFFFFF010A
:1045200000F0004008C000404022034B9A675A67E1
:104530001A67DA667047C04600F0014010B5FEF712
:10454000AFFE10BD70B5044D044C2800C022A16818
:1045500000F04AFFA56070BD0000002000ED00E003
:10456000002310B5294C82B0A367FFF779FF012221
:10457000274B1A60636C012BFCD10322254B1A6078
:10458000224A936B012BFCD1013300930121224A73
:1045900022480433FFF7DAFE052301210093204A65
:1045A0002048FFF7D3FE0022022104201E4BFFF714
:1045B00053FE0022012105201C4BFFF74DFE002277
:1045C000002107201A4BFFF747FE00220021082098
:1045D000174BFFF741FE8023DB00009300220021F0
:1045E0000920134BFFF7BEFD0022104B00210620CF
:1045F000FFF732FE0420FFF7A3FE0E4900F04CF84F
:1046000001000020FFF7F2FE02B010BD0080004064
:104610003CB0004030B00040002F6859008002409C
:10462000008C864700C00240001BB700405973074A
:10463000006CDC0240420F0001480421014B184786
:10464000001600201D440010124A936F9B0815D2DB
:104650009066D166002905D0FFE7FFE7FFE7516FBD
:10466000106F704704B580210906C2175140002819
:1046700000D0C8430BF060FD002104BDF0B5146EFE
:10468000556E576F166FFFF7E3FF14665566576751
:104690001667F0BD000000D0114A936F9B0813D23B
:1046A00010665166002905D0FFE7FFE7FFE7516F6D
:1046B000106F704704B5002801D00020C0430BF0F4
:1046C0003BFD002104BDC046F0B5146E556E576F1A
:1046D000166FFFF7E5FF1466556657671667F0BD5E
:1046E000000000D094464A4A926F9208624601D276
:1046F00028E0C046F0B5464E346E756E776F366F63
:1047000000F020F89446424A1466556657671667CB
:104710006246F0BD94463E4A926F9208624601D2CC
:1047200054E0C046F0B53A4E346E756E776F366F12
:1047300000F04CF89446364A14665566576716677B
:104740006246F0BD002B24DB11D000293EDA00B513
:10475000C943404200D1013100F038F8C94340421A
:1047600000D10131DB43524200D1013300BD002AA8
:10477000EBD1002801D1002905D00020C90FC907BD
:1047800001D1C043410800B50BF0CEFC002200234C
:1047900000BD00B500290ADBDB43524200D10133E2
:1047A00000F014F8C943404200D1013100BDC943B3
:1047B000404200D10131DB43524200D1013300F0CD
:1047C00005F8DB43524200D1013300BD002923D15B
:1047D000002B18D1002A0CD0BC460D4F38667A66E3
:1047E00000210023FFE7FFE7FFE77A6F386F674696
:1047F0007047002801D00748010000B50BF094FC79
:104800000022002300BD02000B00002000217047A1
:10481000000000D0FFFFFFFF002B00D0BFE0130C13
:1048200028D1002AE7D080B4114F39667A66FFE7B5
:10483000FFE730B4040C7B6F396F1B0423433B66E6
:104840007A66FFE7FFE7FFE7C04684B27B6F3D6F04
:104850001B0423433B667A66FFE7FFE7C04600235D
:104860002C042D0C7A6F386F00196941B0BC704769
:10487000000000D0F0B594460025140E01D11202BC
:104880000835140F01D112010435940F01D19200A3
:104890000235D40F01D152000135D40B0134254F1C
:1048A0007C66254C3C660E0C93B2FFE7FFE7FFE702
:1048B0003C6F6643360C7703BE467343DF0B5B04E5
:1048C000C01AB941130C7343DB18C91ACE086643EA
:1048D000360CB64493B273431F0F1B01C01AB94183
:1048E000130C73431F0B1B05C01AB941860D8F02B1
:1048F0003E436643360C092D24DB520A7243801A6C
:104900007703460A6643360C16235B1BDE40DF4006
:10491000BF1964466643821B7046043506330100A6
:10492000D940A840C01900D30131A24206D20023C9
:10493000F0BD0000000000D0FFFFFFFF121B0130A0
:10494000F3D3F1E709277F1BFE406446A2B272430E
:10495000801A00D20139220C7243130C1204821AFD
:1049600099410B007046043513370100F940A84007
:10497000801900D30131002B02D1A2420AD2F0BD2E
:10498000013000D30131121BFAD2013BF8D1A2420F
:1049900000D2F0BD013000D30131121BF7E7F0B5B2
:1049A0001C0C00D080E00CB400251C0A04D11B02B2
:1049B000160E3343120208351C0B04D11B01160FCF
:1049C0003343120104359C0B04D19B00960F3343F3
:1049D00092000235DC0B02D192185B4101351C00BC
:1049E000971864410134464F7C66464C3C660E0C79
:1049F000FFE7FFE7FFE7C0463C6F6643360C7703EF
:104A0000BE4697B27743C01B00D20139C01B00D20B
:104A100001399FB27743C91BC91B170C77437E042A
:104A2000FF0B801BB941CE086643360C0C2D33DBDF
:104A3000B644120B1F053A431B0B97B27743C01BBA
:104A400000D201399FB27743C91B170C77433E044C
:104A50003F0C801BB941860D8F023E4366432927D8
:104A60007F1BFE400C3D7746AF40BF1930BCA2B261
:104A7000ABB272437343801A9941220C7243130CF8
:104A80001204801A994102000B000137001BA94152
:104A9000F9D2781E0021F0BD0C277F1BFE4077461F
:104AA0007F0BAF40FF19E0E700245D1C07D0144FD7
:104AB0007D663966FFE7FFE7FFE7FFE73C6F95B2EA
:104AC0009EB265436643401BB141150C1E0C654305
:104AD000664336042F0C3E432D04401BB1419942DE
:104AE00004D202000B0020000021F0BD01D1904251
:104AF000F7D3801A994101349942F2D3F6E70000C6
:104B0000000000D0FFFFFFFF48404140484018B47C
:104B10001B4B5B68FC46019308BD04DFAF4D0010E2
:104B200018B4174B1B68FC46019308BD00DFB94D54
:104B300000109446134A926F920809D2624618B444
:104B40000F4BDB68FC46019308BD0CDF7150001071
:104B50000C4AF0B5146E556E576F166F6246FFF72C
:104B6000EEFF084A1466556657671667F0BD18B41D
:104B7000034B9B68FC46019308BD08DF154F0010EE
:104B8000F0240020000000D0FFB5504042405040CB
:104B900059404B40594000E0FFB5154F4C00640DA3
:104BA00003D0BC4204D10C0314D80020090D090520
:104BB0005C00640D03D0BC4204D11C030AD800225F
:104BC0001B0D1B0501264B4009D44B4003D58B42DE
:104BD00000D18242FFBD9942FCD19042FFBD0B4300
:104BE000DB1803431343F5D0C9434918FFBD000048
:104BF000FF07000000B5FFF7CFFF804100BDC046B2
:104C000000B5FFF7C9FF01D9002000BD012000BD9C
:104C100000B5FFF7B9FF01D9002000BD012000BD9C
:104C200000B5FFF7B1FF804100BD012040054A00FB
:104C3000121804D85A00121801D800207047012019
:104C4000704700000021002805D17047C117484077
:104C5000401AFAD0C90713B5064B1B6898470CBC1D
:104C6000441CA2401005120B0349091B09051943F6
:104C7000114310BD783800201F04000010B54C000F
:104C8000620D8023D218DB00D21A5B057E2A10DD6C
:104C90009E3A13DACC170903490819435242D1400E
:104CA000640001341532202A05DAD04008436043FD
:104CB00010BD002010BD0846604310BDC80FC018CD
:104CC000013810BD18B4044B5B6AFC46019308BD63
:104CD00024DF215200100000F0240020132370B5BF
:104CE0001D78012D19D014DD1E48FFF78FFB06003B
:104CF0001D48FFF78BFB1D4C80223100200000F087
:104D000073FB022D06D01A48FFF778FB194B186089
:104D100070BD164C184BA364F5E7174B134C23607A
:104D20006360A360E36023616361A361E361236265
:104D30006362A362E36223636363A363E363236445
:104D40006364A364E36423656365A365E365236625
:104D50006366A366E36623676367A367E367A36489
:104D6000D1E7C0465344000053460000F024002021
:104D70004C330000783800207D4D001007B56046A8
:104D800001880A0A0230DF2AFAD1C9B2820804D3A4
:104D9000028840880004104300E00068014A505037
:104DA000039007BDF02400200FB403BC0CBCF0B589
:104DB0000124E407634000E0F0B50C0DCF0F661E40
:104DC0003605891B640503D3C943404200D3013132
:104DD000640D03D0661CF60A07D0E41B00207F0098
:104DE000791C89078912803C24031D0DDF0F6E1E7C
:104DF00036059B1B6D0503D3DB43524200D30133C1
:104E00006D0D03D06E1CF60A07D0ED1B00227F004B
:104E10007B1C9B079B12803D2D032F1B661B58D4C8
:104E2000A446202E46DA20371400BC401D00BD40A9
:104E3000F24033412A4380185941CB0F05D0C94372
:104E4000C043002264425041514162464D0D28D179
:104E50000D0D07D100281FD0241940414941013AC6
:104E60000D0DF9D0640006D3013000D30131002CC0
:104E700001D140084000013A0BD4941CE40A04D14B
:104E800012051144DB071944F0BDD907204B194323
:104E900000E0D9070020F0BD0029DDD1002CDBD1D6
:104EA000F0BD0132C6074008CD0728434908002E4F
:104EB000E1D0D9E73C2E29DA203E40371400BC402F
:104EC00000D00124F24014431A00BB401C43D31706
:104ED000ACE7AC46202F08DA20360400B4400D00C1
:104EE000B540F84039412843A5E73C2F0CDA203F74
:104EF00040360400B44000D00124F84004430800C8
:104F0000B1400C43C117EAE710001900002494E7F0
:104F10000000F07FF0B50C0D661E3605891BE60A11
:104F20006405640D02D0651CED0A04D00020012147
:104F30000905803C2403A4461C0D671E3F05DB1BAE
:104F4000E70A6405640D02D0651CED0A04D0002256
:104F500001231B05803C24037740644497B484B24A
:104F600096B27443070C7E43150C6F4380B26843BE
:104F7000361802D3012000043F183004350C001904
:104F80007D41844688B29AB250430C0C62431F0C98
:104F90007C438EB27E43921902D301263604A419B3
:104FA0001604170C3618674101BC81B29AB25143FE
:104FB000040C62431B0C5C4380B25843121802D3AA
:104FC0000120000424181004130C401863412D180C
:104FD0005E410020474106BC88B293B258430C0C96
:104FE0006343120C544389B251435B1802D301212D
:104FF0000904641819041A0C091862416D18564105
:105000000020474118BCF902720D1143F0026A0DED
:105010001043ED020A0D03D16D1940414941013B96
:10502000124E9B1B7600B3420ED26D0007D30130A7
:10503000002671416646354301D1400840001B05FA
:10504000C918E4072144F0BD0BDA013306D1013061
:1050500004D101314F0D01D04908F2E7E1070020EA
:10506000F0BD013631050020EBE70000FF03000032
:10507000F0B51C0D671E3F05DB1BE70A6405640DD8
:1050800002D0661CF60A04D0002201231B05803CD6
:105090002403D0252D060026F6432E661E096E66D3
:1050A000CE0FF619B44649004F0D02D07E1CF60A09
:1050B00003D000200021403F3F033E1BB600B44414
:1050C000013F7F05C91B49082E6F013676089C02F7
:1050D000950D25437543ED137543AD1301356D10E3
:1050E000F603761B0CB4CC02450D2C43A2B2B3B22E
:1050F0005A43270C7B43350C6F43A4B26C431B19F6
:1051000002D3012424043F191C041D0CA4187D4162
:1051100024196D41009A91B2ACB26143170C7C43E3
:105120002B0C5F4392B25A43A41802D301221204FB
:10513000BF182204230C52187B41019C6C431B199D
:10514000520ED9010A434401A01A81B2B2B25143AE
:1051500003145A43360C734387B27743D617D219D8
:1051600000277E4136049B191704160C7F185E41F8
:105170007316ED18F301002680337541A90F06D18F
:105180006400690AE8055B0A184309D22FE004228B
:10519000944480337541A90AA8059B0A184326D375
:1051A000404149412404009A019B0D005543641B72
:1051B0004343E41A95B286B27543170C7E43030C41
:1051C0005F4392B25A43B61802D301221204BF18A9
:1051D0003204330C52197B4152429C41002C02D4C0
:1051E0000022013051414008CA071043490802B06B
:1051F0006246D7079210084BD218084B9A4203D246
:1052000012058918C919F0BD0020002A01DC3900F7
:10521000F0BD01331905F5E7FD030000FE070000AE
:10522000002200B5203200F004F8080000BD0000A4
:1052300000220B150AD410B5944600F031F814146E
:10524000013400DA0021CB17144C20470020002144
:1052500070476244343A0CD40C2A07DA04009140B7
:10526000904052422032D440214310BDD843D9430C
:1052700010BD203207D40C469440524220321141D6
:10528000D040204310BD0800C917203203D4524239
:105290002032104110BD1800190010BD53520010EB
:1052A0000A0DCC0F531E1B05C91A520503D3C9435F
:1052B000404200D30131520D03D0531CDB0A07D00A
:1052C000121B00206400611C89078912803A1203B6
:1052D000014BD21A70470000FF03000051434343C3
:1052E000C9188C46110C83B24B4310B4040C6143B3
:1052F00092B280B2504362431C041B0C001910BCD4
:1053000059411304120CC018514161447047000008
:10531000132310B512481C78FFF778F80100012C10
:105320000AD003DD80220F4800F05EF80E48FFF738
:1053300065F80E4B186010BD0A4C5422200000F096
:1053400053F80B4B6365A365E36523666366A36649
:10535000E36623676367A367E3672362E361E5E7C7
:1053600053460000F02500204C3300007838002020
:105370007553001007B5604601880A0A0230DF2A1B
:10538000FAD1C9B2820804D30288408800041043CD
:1053900000E00068014A5050039007BDF02500204E
:1053A00010B504000AF09CF9002804D0034B04193E
:1053B0009C4200D810BD0248FDF7DEFE000004202C
:1053C000C013011010B50AF095F910BD0148042171
:1053D000014B1847101600201D440010014B1B689C
:1053E0001847000010160020014B5B6818470000AA
:1053F000101600209A4200D2885470477047C04669
:10540000F8B557464E464546DE46E0B599460A9BF6
:1054100007009A460D9B8846934615000B9E9B07F6
:1054200010D10C9B9E420DD29D1B14000E005D44BA
:1054300022004B46013431002020B847A542F7D165
:10544000B0460B9E002E27D0444675195346AA1B22
:10545000013E985D21004B46B847002EF6D123004F
:105460002C0098460D9B9B070FD55B46E51A0C9BBD
:10547000AB420AD94646984622004B4631002020CE
:105480000135B8470134A845F6D82000F0BCBB462A
:10549000B246A946A046F8BD2C00E3E7F0B54F465A
:1054A0004646D646C0B584B098460EAB1B78129FD0
:1054B000994694460D9C109B119EBA0725D4002E48
:1054C0004BD19C4200D3BFE001223A4092461F2CB0
:1054D00000D9B8E00C9A551E302201E0202C03D0F0
:1054E00001342A55A342F9D85246002A0DD0A642CB
:1054F0000BD9202C44D00C9A551E302201E0202CD0
:105500003ED001342A55B442F9D1FA064DD57A0578
:105510003FD4002C39D10F9B102B00D179E00F9B89
:10552000022B00D18AE030230C9A012413704B46E1
:10553000002B3FD02D230C9A135501340C9B62464F
:1055400000930397434602960194FFF759FF04B076
:10555000E0BCBA46B146A846F0BD012215003D4068
:10556000AA463A422FD04A46002A02D10C323A4289
:1055700000D0013E9C42BAD21F2CABD9202E27D995
:105580002024FA06DAD57A0503D4A3422DD0A64208
:105590002BD00F9B102B32D0022B20D0202CCDD023
:1055A00030220C9B1B191A700134202CC6D04B469C
:1055B000002BBFD17B070DD43B07BFD520230C9A0E
:1055C00013550134BAE79C429FD21F2C00D881E7C3
:1055D00020249AE72B230C9A13550134AEE7202C94
:1055E000ACD00C9B1B1901343AE0631E012C92D005
:1055F0000F9A102A2AD0022A2FD01C00D0E7BB060F
:105600000ED4202C9AD00C9B1A19013478231370D5
:10561000C4E7BB060DD478230C9A01241370BFE7AE
:10562000202C00D18AE758220C9B1B191A700134D8
:10563000B4E758230C9A01241370B1E70C9A603335
:1056400001241370ACE7202400265EE7023CBA0672
:10565000E9D40C9A12191C00D8E70C9A92465344CC
:1056600062221A709AE7C04610B5002800D110BD1A
:1056700001F002FCFBE7C0460B0010B5002802D089
:1056800049681B68984710BDF0B5DE4657464E4640
:105690004546E0B59BB09B46249B89469846259B92
:1056A0000B900C924046424619009A46FFF7BDFA0D
:1056B000002800D0D8E0012240465146774B5242A4
:1056C000FFF7AEFA002800D0CEE001224046514656
:1056D000734B5242FFF78EFA002800D0C4E000223C
:1056E000002340465146FFF785FA002800D0B9E173
:1056F000424653460A9209938023289ADB001A40B7
:105700000E92289A1A4201D1062326930A9A099BDF
:105710001600134300D0C7E0289B002500261B0578
:1057200000D49BE100230D93269A0D9B9A4200DC46
:105730009FE1D01A431E26938023289ADB001A4348
:105740000023002728920D93279B0024BB4200D9F9
:10575000DC1B0223289A1A400E92289A134203D087
:105760007B427B415B421C400D9B002B07D00A987B
:1057700009992A003300FFF7DCF90A900991002209
:10578000002340465146FFF735FA002805D0802017
:1057900000068446099961440991289A414B0B9D62
:1057A00013400493269B0A9A0293099B0394009248
:1057B000019349465B4628000C9A00F08BF90400DF
:1057C000002F62D0289B220098061F23C017984301
:1057D000631C984649465B466530A8470D9B0025EB
:1057E000DA179C18DB0F9A465440013F01E0202D48
:1057F00013D00AAA94461F23200063440A210135CE
:105800005E19FEF749FF3031317020000A21FEF7A2
:1058100043FF26000400092EE9D805230693002340
:1058200004930A330393534605970B9F029312ABDD
:10583000009342465B46494638000195FFF72EFE2D
:105840000E9B0400002B20D00C9BC51A279BAB425B
:105850001BD91E0022005B46494620200135B8476F
:105860000134AE42F6D810E0289B42460493279BB1
:1058700049460393269B0B9802935346009201934B
:105880005B460C9A00F026F9040020001BB0F0BC27
:10589000BB46B246A946A046F0BDC046FFFFEF7F1B
:1058A000FFFFEFFFFFF7FFFF734B099F9C46780058
:1058B000400D6044FFF7CAF9704A714BFFF757F982
:1058C000704A714BFFF72CF93B03704A1B0B1A43CC
:1058D00004000D00300011006D4B0022FFF717F996
:1058E0006C4A6D4BFFF743F902000B0020002900C2
:1058F000FFF716F9FFF7C2F90D90FFF7A7F9674A0E
:10590000674B04000D00FFF732F90022654BFFF7EB
:1059100007F9FFF7B3F9644A0600644B2000290039
:10592000FFF725F9040030000D000F96FFF78EF900
:105930005F4A604BFFF71BF902000B0020002900B3
:10594000FFF7E5F802000B0006000F00FFF70FF964
:10595000320004000D003B0030003900FFF7E0F892
:10596000002210901191544B20002900FFF7E1F81C
:105970000022524BFFF7D4F802000B002000290050
:10598000FFF7D7F800224E4BFFF7CAF802000B00D2
:1059900020002900FFF7CDF80D008021040032001F
:1059A0003B000020C905FFF7B2F802000B00200001
:1059B0002900FFF7B5F802000B0010981199FFF7C6
:1059C000B8F80022314BFFF7ABF83E4B0F9C9C46DA
:1059D000644400222305FFF7CAF805000E00020008
:1059E0000B000A980999FFF705F900280AD00D9BCA
:1059F0002800013B31000D930022304BFFF799F84E
:105A000005000E00C6270D992B0063318F42BF4160
:105A100028997F420437090500D495E6334300D125
:105A200082E6099C284A2100284B0A98FFF7F0F8E3
:105A3000002808D000222100254B0A98FFF7DAF849
:105A4000002800D070E6269B002B00D17CE60E9B40
:105A50005A1E9341269AD31A269375E600230427EB
:105A60000D9371E643460A9380231B065344099322
:105A700042E6002326935FE601FCFFFFFB799F507F
:105A80001344D33FB3C8608B288AC63F0000F03F61
:105A90000000F83F61436F63A787D23F71A3790984
:105AA0004F930A400000E03F1655B5BBB16B024072
:105AB000EF39FAFE422EE63F00002C400000244061
:105AC00000001840FF0300002D431CEBE2361A3F94
:105AD00080842E41F0B54E46DE4657464546E0B539
